S31500000000900D00205D0600006506000067060000F2
S31500000010690600006B0600006D0600000000000087
S315000000200000000000000000000000007105000054
S315000000307106000000000000F905000049060000F6
S3150000004077060000770600007706000077060000B6
S3150000005077060000770600007706000077060000A6
S315000000607706000077060000770600007706000096
S315000000707706000077060000770600007706000086
S315000000807706000077060000770600007706000076
S315000000907706000077060000770600007706000066
S315000000A07706000077060000770600007706000056
S315000000B07706000077060000770600007706000046
S315000000C0770600007706000077060000733E000002
S315000000D07706000077060000770600007706000026
S315000000E077060000833700007706000077060000D9
S315000000F07706000077060000770600007706000006
S3150000010077060000770600007706000077060000F5
S3150000011077060000770600007706000077060000E5
S3150000012077060000770600007706000077060000D5
S31500000400FFFFFFFFFFFFFFFFFFFFFFFFFEFDFFFFF9
S3150000041000F002F800F068F80AA090E8000C8244A8
S315000004208344AAF10107DA4501D100F05DF8AFF285
S31500000430090EBAE80F0013F0010F18BFFB1A43F0BC
S3150000044001031847306B0000706B00000A444FF040
S31500000450000C10F8013B13F0070408BF10F8014B1D
S315000004601D1108BF10F8015B641E05D010F8016B62
S31500000470641E01F8016BF9D113F0080F1EBF10F8C6
S31500000480014BAD1C0C1B09D16D1E58BF01F801CBE9
S31500000490FAD505E014F8016B01F8016B6D1EF9D56C
S315000004A09142D6D370470000103A24BF78C878C16D
S315000004B0FAD8520724BF30C830C144BF04680C6064
S315000004C0704700000023002400250026103A28BFAC
S315000004D078C1FBD8520728BF30C148BF0B607047B0
S315000004E01FB51FBD10B510BD05F036FE1146FFF74E
S315000004F0F7FF00F00DFA05F054FE03B4FFF7F2FF24
S3150000050003BC05F055FE000080F309887047EFF341
S3150000051009807047684680F3098804480078C00758
S3150000052014BF0220032080F3148870476867000018
S31500000530DFF818C0EFF305831B0618BF6047EFF31B
S315000005401483DB0708BF604700DF7047EB550000E8
S31500000550DFF818C0EFF305831B0618BF6047EFF3FB
S315000005601483DB0708BF604700DF7047275600008B
S31500000570EFF30980816911F8021C39BB90E80F106E
S31500000580E047EFF3098C194B93E80600914218D027
S3150000059059B10CB44FF0010381F821302CE9F00F6A
S315000005A0C1F824C005F069FA0CBC1A60D2F824C060
S315000005B0BCE8F00F92F821308CF309881BB192F851
S315000005C02000CCF800006FF0020E704710B5084A04
S315000005D01268914209D8074C54F8214090E80F1050
S315000005E0A047EFF3098C8CE80F0010BD38010020FE
S315000005F0C0610000C061000005F0DEF9114B93E810
S31500000600060091421BD00CB44FF0000381F8213054
S31500000610EFF3098C2CE9F00FC1F824C005F02DFA90
S315000006200CBC1A60D2F824C0BCE8F00F8CF3098821
S3150000063092F821301BB192F82030CCF800306FF0E0
S31500000640020E70473801002005F0FEF9D6E70000DB
S3150000065005F0F9F905F0F8F9D0E7000009488047F8
S3150000066009480047FEE7FEE7FEE7FEE7FEE7FEE78E
S31500000670FEE7FEE7FEE7FEE704480549054A064BA6
S31500000680704700009D0600001104000068F0FF1F7F
S31500000690900D002068F1FF1F900B00205B484CF284
S315000006A02051C1814DF62811C1814FF4E9710180B5
S315000006B057494FF48810486456480021017056483F
S315000006C00173242242709A220270C27802F01F023D
S315000006D0C27003220271417181798907FCD5817943
S315000006E0C1F381010229FAD1027140214171817958
S315000006F08906FCD581794906FCD51A2101708179D4
S31500000700C1F381010329FAD181794906FCD57047E5
S3150000071030B541490878414B84094FF400404FF009
S3150000072001020FD00C78B2EB941F5DD14B78DB073A
S3150000073063D0087A3A49C0F3420002FA00F0B1FBEE
S31500000740F0F05AE04C79640642D40C78640710D471
S315000007500C7BE40700D118460B78C3F3C20302FAF8
S3150000076003F3DBB2B0FBF3F04B7813F0300F00D09D
S315000007704009C97801F0E00111F01F0F3DD1491180
S3150000078008293AD2DFE801F004080C1014181C20DE
S3150000079000EB8000C00130E000EB800000022CE09E
S315000007A0C0EB0010C00128E000EB8000400224E00E
S315000007B04FF43771484320E04FF4B76148431CE0DB
S315000007C040F69501484318E040F67131484314E07D
S315000007D0087900F01F00401CB3FBF0F0497901F0E6
S315000007E01F011831484308E00C780225B5EB941F29
S315000007F00BD1097BC90700D118460549496C02EBA4
S315000008001171B0FBF1F00749086030BD00200540CA
S3150000081000800440005006400040064000127A0066
S3150000082000093D000000002002F059BF02F064BF3D
S315000008303E48DFF8FCC0C168102000DF70473B4827
S31500000840DFF8ECC0C168202000DF70473749002878
S3150000085001D001200870C9680420DFF8D4C000DF89
S31500000860704732490028496802D0012004F0F3BBE2
S31500000870022004F0F0BB6420DFF8B8C000DFDFF828
S31500000880B8C000DF00F089FFF9E7DFF8B0C000DF8D
S31500000890264C606000231A460F21AFF22500DFF8D0
S315000008A0A0C000DFA06000F01DFE02F03DFF01F0D9
S315000008B06BF90421E06802F057FF03F0EFFB01201B
S315000008C003F0F8FB00224FF6FF7421460320DFF801
S315000008D074C000DFC820DFF870C000DF002003F01E
S315000008E0E9FB002221460C20DFF858C000DFDFF8C4
S315000008F05CC000DF400703D5002002F031FF02E0B4
S31500000900012002F02DFFC820DFF83CC000DFE8E739
S3150000091010B502F009FFFFF7FDFD00221146AFF208
S315000009209500DFF82CC000DF002010BD00E0FF1F9F
S31500000930EB4F0000995E0000A95E0000C35B00005B
S31500000940495C0000A94F0000935E0000775000004C
S31500000950295D0000FEE77047FEE77047704710B557
S3150000096005F02FF930B1174900EB400001EB4010BC
S31500000970603810BD144810BD144910B50246086809
S3150000098000B1FEE71248106001220A6004F05CFE26
S31500000990012010BD10B5044605F013F9002805D056
S315000009A04FF6FF71DFF82CC0206800DF10BD10B5D0
S315000009B0044605F006F9002803D0DFF81CC02068BD
S315000009C000DF10BDB0ECFF1F04F0FF1F0400002085
S315000009D0F0EEFF1F11570000595600000020704727
S315000009E000207047002070470020704700207047A5
S315000009F00020704700207047002070470020704795
S31500000A000020704700207047002070470020704784
S31500000A100020704700207047002902D0DFF888C008
S31500000A2000DF7047DFF884C000DF70470022DFF880
S31500000A3080C000DF704700F028BC2DE9F0411D4C56
S31500000A401D4F00252560386838B100231A4603215A
S31500000A501A48DFF86CC000DF2060DFF85CE0194E52
S31500000A6000240EF1080E00BF46F824505EF824005C
S31500000A7038B100231A460221DFF844C000DF46F8E9
S31500000A802400641C0F2CEFD90F4C256078680028D1
S31500000A9007D000231A4602210C48DFF824C000DFE5
S31500000AA02060BDE8F0810000EB4F000077500000A9
S31500000AB0A94F0000F80000209C670000000000001D
S31500000AC0495C000068EFFF1F50E0FF1F00000000B8
S31500000AD0FE4900228A61CA610A6200280AD04A6277
S31500000AE0487808B1072000E0082008610A724A72B7
S31500000AF08A72CA620A634FF40040C860CA700A71FB
S31500000B004A718A718A62CA71F24AF14810600120FC
S31500000B100870704770B50446EC4D6C700120FFF705
S31500000B20D7FF2046FFF79DFE696BBDE870404FF486
S31500000B30804004F090BAE849082008607047E6490A
S31500000B40082080390860704710B50446FFF7F3FFA8
S31500000B50DE49B4F5FC3F08D0B4F5FE3F0AD0896BF8
S31500000B60082004F078FA002010BD896B022004F0FA
S31500000B7072FAF8E7896B012004F06DFAF3E770B5B5
S31500000B80D24C4FF4806594F82000C00711D1D04AAA
S31500000B9029464FF4FE30FFF7D7FF08B1012070BD9C
S31500000BA0D4E90710884204D10120FFF7B3FF0020E3
S31500000BB070BDD4E9071088420DD1C00708D0C44AD9
S31500000BC029464FF4FF30FFF7BFFF08B1012070BD83
S31500000BD00120FFF79FFF002070BD70B5BB4C4FF49E
S31500000BE08065D4E90710884209D1BC4880686061F5
S31500000BF004F11C0229464FF4FC30FFF7A5FF94F8D8
S31500000C002000C00718D1B24A2946E068FFF79CFFCA
S31500000C1028B1E06800F58060E060012070BDD4E98D
S31500000C200710884204D10120FFF774FF002070BD31
S31500000C30E06800F58060E060D4E9071088420CD1D6
S31500000C40C00707D0A24A2946E068FFF77DFF08B132
S31500000C50012070BD0120FFF75DFF002070BDDFF8A9
S31500000C6080C200DF994FB8634FF6FF784FF4806972
S31500000C704FF4FE36002241460F20DFF868C200DF3F
S31500000C800228F7D1DFF860C200DF0546280705D540
S31500000C908F4A4946F86803DFFFF751FF68070DD50D
S31500000CA09248006802F0E8FC4FF40044204602DF58
S31500000CB004F58064B442F9D3FFF741FFA80705D5D0
S31500000CC0824A4FF4FC301432042103DFE807D1D006
S31500000CD0304602DF7E4A4946304603DFCAE7002730
S31500000CE00024DFF8FCC100DF784E70634FF4E04863
S31500000CF0002264214046DFF8ECC100DF022810D054
S31500000D00002CF5D0DFF8E8C100DFC01B40F6B83193
S31500000D108842EDD900240620B0700020FFF7FAFEC5
S31500000D20E6E7DFF8C4C100DF0546E80417D5012071
S31500000D30F0713220DFF8BCC100DFF07901280ED156
S31500000D4096F82000C00705D0614A4FF48061F0682C
S31500000D50FFF7FAFE0120FFF7DDFE0020F071A80480
S31500000D6004D5DFF88CC100DF074601246804BFD52F
S31500000D700024BDE710B5554C606A01280DD0607996
S31500000D8001280CD0FFF7D7FE207A02280ED00420C7
S31500000D90A16B04F060F901206062002010BD032001
S31500000DA0A0700020FFF7B6FE012010BD4F48006876
S31500000DB002F062FCFFF7C3FEEDE7F0B5067A427A71
S31500000DC0837A057800204C4F14E007EBC00494F8B2
S31500000DD001C0B4450DD194F802C0944509D1E47818
S31500000DE09C4206D107EBC00252680A6017F8300031
S31500000DF0F0BD401C17F83040052CE6D1A6F1610085
S31500000E000024192802D9413E192E1FD8A2F16100EB
S31500000E10192804D92030192801D9202A16D1A3F17E
S31500000E206100192804D92030192801D9202B0DD1A9
S31500000E30A5F16100192802D92030192806D82E2DCF
S31500000E4004D05F2D02D00C600520F0BD0C6006209A
S31500000E50F0BD2DE9F84F07460026B246B146B34627
S31500000E60CDF800B0DFF86480072904D198F80100B6
S31500000E70012802D00D26304611E00C26FBE707EBD1
S31500000E804011C97AC90609D5012088F80200002058
S31500000E90FFF740FE4FF0FF30BDE8F88F401C1028EA
S31500000EA0EDD334460CE007EB441569462846FFF7B8
S31500000EB084FF98B303287DD005287CD02036641C97
S31500000EC0102CF0D3B9F1000F22D017E0100000204B
S31500000ED0D80200201801002084E100E0A8EFFF1FDF
S31500000EE0C35B0000A94F00007750000000000020FF
S31500000EF08D5E0000935E0000946B0000D8F81C1015
S31500000F00D8F810000844C8F810000020FFF7E0FDEC
S31500000F10BAF1010F70D04FF0FF30BDE7FFE7E87A76
S31500000F20C0F34002E869C8F818000028C7D0698BEA
S31500000F30891E092303EBC101C8F8301000F2FF1027
S31500000F40400AC8F81C0028785F2809D02E2807D048
S31500000F50E52805D098F80900424601280BD019E08B
S31500000F60D8F81000884201D14FF00109C8F818B02E
S31500000F70C8F81CB0A3E7937A10465BB9056B836A81
S31500000F80AB4207D3042181700020FFF7C3FD4FF069
S31500000F90FF3081E74FF00009906A38B3136B98422F
S31500000FA024D2081A116A091AD06981421ED382F81E
S31500000FB000B001E021E03CE0C10702D04608761C03
S31500000FC000E0460800244FF400456F1106E005EBEB
S31500000FD08420C44A3946FFF7B7FD641CB442F6D3F1
S31500000FE00120FFF797FD4FF0FF3055E74FF0010A5C
S31500000FF026460120107265E724E0E869C8F8180063
S315000010000028B7D007EB4410408B801E092101EB66
S31500001010C000C8F83000D8F8180000F2FF10400AE7
S31500001020C8F81C004FF0010A2646022088F808007E
S3150000103048E7012088F802000020FFF76BFD4FF01B
S31500001040FF3029E7304627E770B504460D46A64E21
S315000010503078002836D0A5480068002832D04FF4F2
S315000010600071284604F0FAFF092C31D806F13C003D
S3150000107000EBC4014A6850F83410284604F0A9FF72
S31500001080012C01D17078F0B1072C1BD170780028A3
S3150000109018D1954820223C3000F13804C06B9449A1
S315000010A0284404F096FF9048B178943050F8210017
S315000010B004F070FF626805F11C0150540620616857
S315000010C01A35485570BDFF2068720F20A87270BD92
S315000010D0112C07D0192C0DD0212CF8D1BDE8704069
S315000010E000F000BA2846BDE870408149A0222031B0
S315000010F004F06FBF2846BDE870407D495022C031DC
S3150000110004F067BF2DE9F04104460A46764E307872
S3150000111000283FD00125072C01D0082C2AD1E1B2A6
S315000011201046FFF796FE401C24D0F07800B93571C2
S31500001130012806D1D6E90721914202D1716A012917
S3150000114002D001280BD015E0F079002822D1F571E4
S31500001150716BBDE8F0414FF4805003F07CBF316BFA
S31500001160B06A884206D1D6E90710884202D9706A69
S31500001170012804D0292C0DD3307920B104E0BDE834
S31500001180F0410120C6E4F570F06A28B1401CA04287
S3150000119002D0B572BDE8F081B07918B930698442E1
S315000011A000D93461FFF7E6FD0128F3D0706A012803
S315000011B0F0D1B07A002720B13069844201D1B772EC
S315000011C077723069A042E5D8B17941B9A04206D11B
S315000011D0B5714FF40050716B03F03DFFB462B07906
S315000011E040B93169A14205D00520B070BDE8F04193
S315000011F000208FE401280ED1B17A61B9B16AA1420B
S3150000120009D0326A1144A14205D00220B070BDE86F
S31500001210F04100207EE4F179012900D1F77120B177
S315000012203069844201D1B7727772F462317A3148FB
S31500001230314A0424022905D0316A491C3162C907A2
S3150000124015D113E0316A491C3162C90700D125481E
S315000012501060FFF794FC01289CD1307A20B1B4705D
S31500001260BDE8F041002055E4757293E71D48106013
S31500001270FFF7B3FC01288DD1307A20B1B470BDE8F8
S31500001280F041002046E4757284E710B51648012443
S31500001290C17A002911D1C472184A00234CF60501FF
S315000012A0AFF2C550DFF858C000DF00231A460A2106
S315000012B0AFF25560DFF848C000DF12484FF418312E
S315000012C0016011494FF4007008601048046010492D
S315000012D04FF49870086008490248086003480460A3
S315000012E010BD0000D80200201000002000010020E0
S315000012F0846A0000D804002018010020D8060020C7
S31500001300495C000064E0FF1F0C0100201001002072
S315000013101401002010B5854B03EB101424780C70D3
S3150000132000F00F00185C107010BDF0B50026002309
S31500001330002517E00478A4F13007092F01D83023DF
S315000013400AE0A4F14107052F01D8372304E0A4F1F0
S315000013506107052F00D8572306FB0244E61A401CF6
S315000013606D1CEDB28D42E5D33046F0BD2DE9F0415E
S315000013706F4E242030707070B0701820F070042505
S3150000138000206C4F7A6829466D1C135CEDB27354CD
S31500001390401CC0B20428F6D3002405EB4400811992
S315000013A04A1CC4F10300C300F868D840C0B2FFF776
S315000013B0B1FF641CE4B2042CEFD30835EDB200246F
S315000013C005EB440081194A1CC4F10300C3003869C7
S315000013D0D840C0B2FFF79EFF641CE4B2042CEFD3E2
S315000013E00835E8B200213154BDE8F0812DE9F0411D
S315000013F04F4D281D04F0CEFDC3B2022000EB430181
S3150000140005F11D0001700321417002220021002414
S3150000141005E0CE070BD056188455491CC9B2B1EB6E
S31500001420430FF6D302EB4301C9B24454DCE705EBA4
S31500001430510657183679C655EFE73D48704710B53F
S315000014403B48001D04F0A6FD022101EB4000C0B29E
S3150000145010BD37481D30704710B5364C1022042198
S315000014606068FFF762FFE168484020612F4810225C
S3150000147008211130FFF759FF21694840206110BD4E
S31500001480002202710160704770B50021294C0026C8
S31500001490012302791AB1A268127802B9067102799B
S315000014A0B2B901684A1C02600978402910D1157842
S315000014B0412D04D11E4D2D1DA5600125057105790F
S315000014C035B1521C0260A26812780AB9067100236F
S315000014D002791AB1A26812F8011BA260002BD7D0BC
S315000014E0084670BD7CB50024124D287800280BD123
S315000014F005F10C0002F064F9FFF7AEFFFFF736FFC7
S31500001500FFF774FF012028700B496846FFF7B8FF04
S315000015100A4D6846FFF7B8FF002803D0214604F1BC
S3150000152001046854F5D14FF001007CBDC86E00007F
S31500001530FCEEFF1F1CE0FF1FA56D0000D802002077
S3150000154070B5FF4DFD49284600F08AFC0024FD4E8B
S31500001550284600F098FC36EA000104D0641C0A2CE8
S31500001560F6D3012070BD002070BD7CB505460C4643
S31500001570002101910091FFF7E3FF01A90D2000F082
S31500001580BCFD21460D2000F048FD01A90D2000F00C
S31500001590B4FD0D20019900F040FD69460F2000F0D2
S315000015A0ACFD29460F2000F038FD69460F2000F0FB
S315000015B0A4FD0F20009900F030FD7CBD08B5002089
S315000015C00090FFF7BDFF69460F2000F096FD0F2043
S315000015D0009900F022FD08BD10B5D849D848891EEB
S315000015E000F03EFC002010BD2DE9F84F0D460A9F85
S315000015F09A46BAF1000F02DC0220BDE8F88F4FEAE6
S31500001600D209B9F1010F04D00020B9F1020F0DD0B3
S3150000161000E0012000210843B9F1040F08D00021A1
S31500001620084307D02C46A046002648E00121F2E7F1
S315000016300121F5E70220E0E7B9F1010F06D0B9F183
S31500001640020F10D0B9F1040F39D11EE069464046A9
S3150000165000F03AFC761C08F101083919491B00987C
S315000016600870641C2BE06946404600F0E6FBB61C99
S3150000167008F102083919491B00980870641C000A11
S315000016803919491B0870641C19E0404600F0FBFB41
S315000016900090361D08F104083919491B0870641CAE
S315000016A0010A3A19521B1170641C010C3A19521B9B
S315000016B01170641C000E3919491B0870641C5645CC
S315000016C0BAD3002099E72DE9F0470D46089F9946C1
S315000016D0B9F1000F02DC0220BDE8F0874FEAD2081C
S315000016E0B8F1010F04D00020B8F1020F0CD000E0D1
S315000016F0012000210843B8F1040F07D00021084358
S3150000170006D02C46002641E00121F3E70121F6E749
S315000017100220E1E7B8F1010F06D0B8F1020F0CD0B4
S31500001720B8F1040F32D117E03819401B0178641C58
S31500001730601E00F0EBFB761C28E03819401B007891
S31500001740641C3919491B097840EA0121641CA01E52
S3150000175000F0A7FBB61C19E03819401B0078641C82
S315000017603919491B097840EA0120641C3919491BBB
S31500001770097840EA0140641C3919491B097840EA96
S315000017800161641C201F00F06BFB361D4E45C1D362
S315000017900020A1E7012000F00DBE2DE9FF5F002427
S315000017A00025002003900290019001F0D9FF012648
S315000017B001F0F4FF00287DD1012001F0D1FF01F0F6
S315000017C0EDFF0028FBD0002001F0CAFFFFF7E2FF83
S315000017D04FF0000ADFF870814FF4FE374FF0000932
S315000017E0C8F810705948C8F80C00DFF864B1C31483
S315000017F00822594600200097FFF765FFD8F80C002D
S3150000180000900423082259460020FFF7EDFE002031
S31500001810D8F80C10D8F810200B68D2F800C0634531
S3150000182001D04FF00109091DC8F80C10121DC8F8A7
S315000018301020401C0028EBD0B9F1000F04D00AF1AB
S31500001840010ABAF1030FC9D3B9F1010F32D04048EA
S315000018504049401CFFF789FEFFF7BEFEDFF8F8A0FF
S31500001860DFF8E4904FF4004B3949012320225C391C
S315000018700020CDF80090FFF7B7FED8F800005045DD
S3150000188001D100241CE0641C5C4516D9FFF758FE04
S315000018904FF4806308222E4900200097FFF713FFBC
S315000018A0FFF778FF2A482B49401CFFF75EFEFFF73B
S315000018B093FE00E08FE000246D1C032DD4D300249A
S315000018C003A8234900900123202250390020FFF766
S315000018D08BFE4FF4FC30039A0168B1FBF2F0C8F8B6
S315000018E0080002FB101111B1401CC8F808000025C1
S315000018F054E0F0B201F034FF96B300260020C8F899
S315000019000400114F20223F1D012311060097FFF707
S31500001910DAFEA802C8F804000D4901232022603926
S3150000192000200097FFF7CFFE0C48C8F804000849CE
S315000019300123202264390020009712E003005FA0F3
S31500001940F0ED00E003000200C0000020001C0020B3
S315000019506C000020F80F002078AA31223412A5A5C9
S3150000196034E0FFF7B0FE6348C8F80400DFF888A14A
S3150000197001232022514600200097FFF7A4FE5F4F67
S315000019800123202251460020CDF80090FFF72CFEBF
S31500001990D8F80000B8421BD100246D1CD8F8080006
S315000019A08542A6D302A854490090012320221C3167
S315000019B00020FFF719FE01A84F49009001232022BD
S315000019C020310020FFF710FE002778E0012695E77A
S315000019D0641C5C45D4D9BDE8FF9F002568E0F0B2E1
S315000019E001F0BEFE002E75D000260198C8F804004E
S315000019F04149DFF80CA1012320222C310020CDF82B
S31500001A0000A0FFF760FE0398029B784303FB0500E6
S31500001A1000F50040C8F810003A49C8F80C100090CC
S31500001A20082200200199FFF74EFE02988008C8F8A8
S31500001A3004002022012311060020CDF800A0FFF7A4
S31500001A4042FE03980299784301FB0500C8F804009A
S31500001A5029490123202208310020CDF800A0FFF7F4
S31500001A6032FE2948C8F80400234901232022091D13
S31500001A700020CDF800A0FFF726FE1E48C8F8040097
S31500001A80012320221C490020CDF800A0FFF71BFEF1
S31500001A90DFF868A00123202217490020CDF8009026
S31500001AA0FFF7A2FDD8F80000504515D100246D1CA3
S31500001AB0DDE90210B0FBF1F0A84290D87F1CD8F8FF
S31500001AC00800874289D311480168042003F0C3FA4D
S31500001AD081E7FFE7012688E7641C5C45DAD97AE7E7
S31500001AE0002204E00021491C6429FCD3521C8242D6
S31500001AF0F8D370471265AAA504000020087155AAFC
S31500001B00C4000020001C0020547855AA04E0FF1FE2
S31500001B10F8482021C1674021C167012101641021D5
S31500001B2001600221C163C26842F01002C26002680D
S31500001B3042F010020260026C42F001020264C163CC
S31500001B40C16C41F00201C164EB4940F213104860D8
S31500001B50704710B5002305E0DC0021FA04F4C454F4
S31500001B605B1CDBB29342F7D310BD70B505460E463B
S31500001B7000243146284601F059FC022803D1641C92
S31500001B80E4B2052CF5D370BD10B501F0E3F8FFF70C
S31500001B90BFFF012010BD38B50C4600F00C00801CBC
S31500001BA06946FFF7E2FF9DF800109DF803209DF8B7
S31500001BB0013041EA02629DF80210090441EA03215C
S31500001BC00A432260012800D0002038BD38B5082815
S31500001BD006D1CA4A13688B4201D1012038BD116073
S31500001BE000F00C0404226846FFF7B3FF694620465E
S31500001BF0FFF7BBFF0128F1D0002038BD38B50446F9
S31500001C000D4604F07F4104F0F00001430820FFF781
S31500001C10DDFFE8B104F00C04E41C69462046FFF73A
S31500001C20A4FF69462046FFF7A0FF9DF800109DF827
S31500001C3003209DF8013041EA02619DF8022012045A
S31500001C4042EA032211432960012800D0002038BD52
S31500001C50002038BD38B504460D4604F07F4104F037
S31500001C60F00001430820FFF7B1FF08B14CB901E0CD
S31500001C70002038BDA1484168A94201D1012038BDE4
S31500001C80456004F00C04641C042229466846FFF7EC
S31500001C9060FF69462046FFF768FF012801D0002053
S31500001CA038BD0E200021FFF760FF0128F8D0002084
S31500001CB038BDF8B507460D46002A13D09608904958
S31500001CC00020FFF7C7FF78B105240422394668468D
S31500001CD0FFF73FFF69462046FFF747FF012805D07B
S31500001CE00020F8BD0020F8BD0020F8BD0D27002417
S31500001CF009E029463846FFF738FF012801D00020C1
S31500001D00F8BD2D1D641CB442F3D30E200021FFF74D
S31500001D102CFF0128F4D00020F8BDF8B507460D4683
S31500001D20002A13D0960876490020FFF793FF78B172
S31500001D300524042239466846FFF70BFF694620460C
S31500001D40FFF713FF012805D00020F8BD0020F8BDDD
S31500001D500020F8BD0F2729463846FFF706FF012861
S31500001D6001D00020F8BD002409E029463846FFF7D7
S31500001D70FCFE012801D00020F8BD2D1D641CB442D4
S31500001D80F3D30E200021FFF7F0FE0128F4D0002047
S31500001D90F8BD1CB50C460146042201A8FFF7D9FE82
S31500001DA0052001A9FFF7E1FE012801D000201CBD96
S31500001DB00F206946FFF7D9FE012801D000201CBD7F
S31500001DC00E206946FFF7D1FE9DF800109DF803200E
S31500001DD09DF8013041EA02619DF80220120442EAB0
S31500001DE00322114321600128E9D000201CBD38B52B
S31500001DF00C46014604226846FFF7ABFE05206946FD
S31500001E00FFF7B3FE012801D0002038BD0422214689
S31500001E106846FFF79EFE0D206946FFF7A6FE0128DD
S31500001E2001D0002038BD0E200021FFF79EFE0128BC
S31500001E3001D0002038BD012038BD70B504460D46DE
S31500001E402F490020FFF706FF30B129462046FFF74D
S31500001E50A0FF18B1012070BD002070BD002070BD2C
S31500001E6070B504460D4626490020FFF7F3FE30B153
S31500001E7029462046FFF7BBFF18B1012070BD0020A0
S31500001E8070BD002070BD38B50446002100911C4984
S31500001E900020FFF7DFFE69462046FFF77AFF00982D
S31500001EA038BD70B504460D4615490020FFF7D2FE31
S31500001EB030B129462046FFF79AFF18B1012070BDC0
S31500001EC0002070BD002070BD38B505460C460C4993
S31500001ED00020891EFFF7BEFEA0B169462846FFF71F
S31500001EE058FF88B1A807C20E0098D0402070012084
S31500001EF038BD000008F00F4000A0044030E0FF1F8E
S31500001F00520000230020F3E70020F1E770B50546F4
S31500001F100C46F9490020FFF79DFE48B1A807C00E00
S31500001F2004FA00F12846FFF762FF18B1012070BDE0
S31500001F30002070BD002070BD2DE9F04105460E461B
S31500001F40144607E031462846FFF7BEFF30B16D1C48
S31500001F50761C641EB4B1A807F4D113E00020BDE8D6
S31500001F60F081C5F30900C0F58067BC4201D224F0B8
S31500001F7003073A4631462846FFF7CFFE28B13D44CF
S31500001F803E44E41B032CECD809E00020E7E7314689
S31500001F902846FFF799FF30B16D1C761C641E002C95
S31500001FA0F5D10120DBE70020D9E72DE9F041054610
S31500001FB00E46144607E031782846FFF7A7FF30B1F2
S31500001FC06D1C761C641EACB1A807F4D112E000208B
S31500001FD0C5E7C5F30900C0F58067BC4201D224F00D
S31500001FE003073A4631462846FFF763FE28B13D44CB
S31500001FF03E44E41B032CECD809E00020AFE731781F
S315000020002846FFF783FF30B16D1C761C641E002C3A
S31500002010F5D10120A3E70020A1E773B50646002409
S315000020206425B6480199FFF73CFF48B1B34846F42A
S315000020308031001FFFF735FF20B1B04E083E10E09B
S3150000204000207CBD00207CBD01A93046FFF7F5FECF
S3150000205020B10198C00303D501207CBD00207CBDC2
S31500002060641CAC42F0DB00207CBD38B5054600217F
S315000020700820FFF7ABFD70B30024204655F8241066
S31500002080FFF7CBFF40B3641C042CF6D30920696A22
S31500002090FFF7C3FF28B30D24204655F82410FFF799
S315000020A0BCFF00B3641C102CF6D31020296CFFF77C
S315000020B0B4FFD0B1914892490838FFF7F2FEB0B1AB
S315000020C069460420FFF767FD98B1009810F0A00F4D
S315000020D011D000200CE700E001E0002008E7002016
S315000020E006E7002004E7002002E7002000E70020C2
S315000020F0FEE60020FCE60120FAE62DE9F0410E4658
S315000021000024642501467D48001FFFF7CAFE10B172
S315000021107A4F083F0AE0002021E731463846FFF7AC
S315000021208CFE48B13068C00302D4641CAC42F4DBB8
S31500002130AC4203D1002012E7002010E731466F4879
S31500002140FFF77BFE08B1012009E7002007E738B555
S3150000215004460D46694869460838FFF76EFE20B109
S315000021600098800303D40020C2E60020C0E6214682
S315000021700020FFF7C2FF30B129460120FFF7BDFF5F
S3150000218018B10120B4E60020B2E60020B0E6F8B5AA
S3150000219042F210750024594E083E0CE0694630465E
S315000021A0FFF74BFE20B10098800303D50120F8BD50
S315000021B00020F8BD641CAC42F0D30020F8BD08B581
S315000021C001460020FFF729FF90B169460F20FFF76F
S315000021D094FF78B100990F20891CFFF71EFF58B1B4
S315000021E0464847490838FFF75CFE38B1012008BD6C
S315000021F0002008BD002008BD002008BD002008BD45
S3150000220070B592B0DDE916454FF0807611960192D1
S3150000221002930394049542680A9282680E920068BB
S315000022200F90109101A8FFF720FF60B1FFF7AFFFF5
S3150000223058B101A90020FFF760FF40B1019840B1F5
S31500002240002012B070BD0020FBE70020F9E7002057
S31500002250F7E70120F5E71CB500206A46FF21115477
S31500002260401CC0B20828FAD36946332000F0D2FDDC
S3150000227001201CBD08B58DF80000000A8DF801008C
S315000022806946102000F0C6FD012008BD1CB50446B5
S315000022900020019001A9082000F0BCFD694600203D
S315000022A0FFF779FC012801D000201CBD9DF8000035
S315000022B09DF803109DF8012040EA01609DF8021088
S315000022C0090441EA02210843206001201CBD08B52B
S315000022D000200090FFF7BFFFA0B14EF29E70FFF7FF
S315000022E0C9FF88B1FFF7B7FF80B16846FFF7CEFF99
S315000022F070B1012008BD000050000023F8ED00E099
S3150000230001005FA00020F5E70020F3E70020F1E7D9
S315000023100020EFE738B500200090411E8448016098
S31500002320416000F017FDFFF7F3FB01F05DFEFFF7DC
S31500002330CEFF40B31E210020FFF748FC28B3002142
S315000023400820FFF743FC10B34FF0A0410420FFF72D
S315000023503DFCF0B14FF0204469460420FFF71BFC1A
S31500002360C8B1009934EA0100F6D172490420FFF79A
S315000023702DFC90B101F03DFE00210820FFF726FC60
S3150000238068B10120B4E50020B2E50020B0E50020E8
S31500002390AEE50020ACE50020AAE50020A8E5002077
S315000023A0A6E56549002802D0002008607047012094
S315000023B00860704738B5614D614C062879D2DFE870
S315000023C000F0033F0716848C0120FFF7EAFFA0E028
S315000023D00120FFF7E6FF0220DFF868C100DF0020DA
S315000023E0FFF7DFFF0220DFF85CC100DF91E001208C
S315000023F0FFF7D7FF0120DFF84CC100DF0020FFF711
S31500002400D0FF0120DFF83CC100DFFFF783FF98B162
S3150000241029462046FFF745FD80B10120FFF7C1FFA1
S315000024200120DFF820C100DF0020FFF7BAFF0120FE
S31500002430DFF810C100DF6CE0002059E5002057E509
S315000024400120FFF7AEFF0220DFF8F8C000DF002012
S31500002450FFF7A7FF0220DFF8ECC000DFFFF75AFF07
S3150000246040B329462046FFF71CFD30B3344D012109
S315000024700C352846FFF715FD08B30120FFF791FF3D
S315000024800220DFF8C0C000DF0020FFF78AFF02202D
S31500002490DFF8B0C000DF69462046FFF7CEFC80B10A
S315000024A000988003F7D500212846FFF7FAFC50B1C3
S315000024B02FE03AE0FFE700201AE5002018E50020AB
S315000024C016E5002014E5002012E51C492046491EA9
S315000024D0FFF7E7FCE8B900200AE500F03BFCFFF750
S315000024E017FBFFF7F4FEB0B11E210020FFF76EFBCD
S315000024F098B100210820FFF769FB80B14FF0A04199
S315000025000420FFF763FB60B129462046FFF7C9FCAC
S3150000251048B10120ECE40020EAE40020E8E40020D1
S31500002520E6E40020E4E40020E2E40020E0E4000029
S3150000253030E0FF1F000F00500408FE4301005FA0BB
S31500002540F0ED00E0935E00000022052824D008DCB0
S31500002550012821D002281FD003281DD004281BD112
S3150000256008E0062818D0F02809D0FE2811D0FF2848
S3150000257012D108E0FE480068086004220CE0012041
S315000025800870012208E040200870002048700222EE
S3150000259002E00520087001221046704708B54FF486
S315000025A07A51484300900098401E0090FBD108BD28
S315000025B008B50278407842EA0020000100900098B1
S315000025C0401E0090FBD10870012008BD0278002A49
S315000025D005D0012A09D0FF200870012070474078F5
S315000025E000F00100E34AC04310600020087001209B
S315000025F0704770B50D460478002C00D1012401F017
S3150000260013F8012C03D000202870012070BDDA4891
S3150000261001220270D9482021C1674FF04001C167ED
S3150000262002644FF0100101604FF00201C163C368FC
S3150000263043F01003C360036843F010030360036CA8
S3150000264043F001030364C163C16C41F00201C1643C
S31500002650CB4940F2131048602A704FF0010070BD5C
S3150000266070B50546C44800240470C44901200839E1
S3150000267048641020486002204864886C40F02000BE
S31500002680C1F88800BE49486840F080704860BD487F
S31500002690486000F0B6FF2C70012070BD002141702B
S315000026A0017002207047F0B5037842788478C578C7
S315000026B044EA0524057940792D0445EA006004437F
S315000026C0B148D50708D0DE074FF0200502D0C0F884
S315000026D0845001E0C0F88850950708D59E074FF052
S315000026E0400502D5C0F8845001E0C0F8885055076F
S315000026F09506150602D5DD09A44E3560002594B36E
S31500002700A34EB44200D934464FF0E026B561A14F3E
S315000027107C43A14FB4FBF7F4746105243461D407FC
S3150000272000D0D3B9940706D5D0F89040C4F3C014AE
S31500002730B4EB530F11D1540702D5B5EB930F0CD15F
S31500002740940602D5B5EB531F07D114060AD5046DBE
S31500002750C4F34004B4EBD31F04D03469C4F300447B
S31500002760002CDCD03561D0F89020C2F3C01245EAC7
S315000027704202006DC0F3400042EAC010087001201A
S31500002780F0BD10B50278437842EA03228378C07818
S315000027901B0443EA00600243002A08D07F48002455
S315000027A0754B824207D301205870586010E0FF2015
S315000027B00870012010BD5C7079481044B0FBF2F03F
S315000027C0022803D90322B0FBF2F000E00120586092
S315000027D00C70012010BD10B502460C461078511C35
S315000027E0002801D14FF4807000F014FB0020207007
S315000027F0012010BD0078604A00F003035B1C1375CE
S31500002800C0F380005075002008700120704738B56D
S315000028100C4659490978012903D0FF202070012070
S3150000282038BD4178827841EA0221C27800791204E3
S3150000283042EA0060014300916946002000F0F6FD7F
S3150000284000202070012038BD10B54B4A0378137262
S315000028504378847843EA04235381C378007943EAB2
S315000028600020908100200870012010BD2DE9F04F56
S3150000287087B004460020059004918D1CDFF8249152
S31500002880002189F80010002703916178A41C0691A5
S31500002890DFF8E4B016E114F8016BB10766D567B34B
S315000028A0BBF80A8006F0110001280DD101A93046B7
S315000028B000F0BCFD022815D1B8F1010812D399F831
S315000028C000100029F2D00DE001A90E2000F0AEFDA7
S315000028D0022806D1B8F1010803D399F8001000299F
S315000028E0F2D00027012842D1019929700A0A6A709C
S315000028F00A0CAA70090EE9702D1DF1066AD520781A
S315000029006178E27840EA0120A178090441EA02618F
S3150000291008430290241DBBF80CA0F00710D0BBF8AA
S315000029200A800021304600F081FD022806D1B8F168
S31500002930010803D399F800100029F2D0012816D116
S31500002940BBF80A8001A9304600F070FD022806D1C6
S31500002950B8F1010803D399F800100029F2D0012834
S315000029602CD1DBF81010019A11401DE063E0AEE0B7
S31500002970E26E00001018FE4350EFFF1F08F00F40F4
S3150000298000A0044013010A0000F00F400408FE43B3
S31500002990C0C62D00006CDC0240420F00001BB700D1
S315000029A0FF356E0138E0FF1F029A914206D0BAF158
S315000029B0010A03D399F800100029C1D0DBF81010E2
S315000029C0019A1140029A914201D040F0100001286C
S315000029D07DD12DE0BBF80A80F10711D047BB00215D
S315000029E0304600F023FD022806D1B8F1010803D3D2
S315000029F099F800100029F2D001286BD1012717E0C1
S31500002A0001A9304600F012FD022806D1B8F10108EE
S31500002A1003D399F800100029F2D001285AD1019960
S31500002A2029700A0A6A700A0CAA70090EE9702D1D2F
S31500002A300021039140E0D7B1BBF80A8001A90E201E
S31500002A4000F0F4FC022806D1B8F1010803D399F886
S31500002A5000100029F2D001283CD101982870010A03
S31500002A606970010CA970000EE8702D1D00272078F2
S31500002A706178E27840EA0120A178090441EA02611E
S31500002A8008430190241DB10603D5CBF810000120A0
S31500002A9012E0BBF80A8001A9304600F0C7FC022804
S31500002AA006D1B8F1010803D399F800100029F2D035
S31500002AB001280FD1012103910599491C059199F827
S31500002AC0001021B90699491E0691491C00E001E053
S31500002AD07FF4E1AE01282AD1CFB1BBF80A4001A9A3
S31500002AE00E2000F0A3FC022805D1641E03D399F83A
S31500002AF000100029F3D0012819D1019929700A0A7A
S31500002B006A700A0CAA70090EE9702D1D0FE0039970
S31500002B1069B1BBF80A4000210E2000F087FC0228AC
S31500002B2005D1641E03D399F800100029F3D0DDE91E
S31500002B300421117004994870049807B0281ABDE85A
S31500002B40F08F2DE9F84F0446002600208946CF1C59
S31500002B50DFF8A0A200218AF80010641C21786278B0
S31500002B6041EA0225A41C002D6CD014F8018BDFF875
S31500002B7088B25FEA887155D55FEAC87130D0BBF874
S31500002B800A400021404600F051FC022805D1641E8F
S31500002B9003D39AF800100029F3D0012852D11FE080
S31500002BA025B95FEAC87001D04FF00E08BBF80A409D
S31500002BB06946404600F03AFC022805D1641E03D35C
S31500002BC09AF800100029F3D001283BD100993970FA
S31500002BD00A0A7A700A0CBA70090EF9703F1D761C43
S31500002BE06D1EDDD22EE020786178E27840EA012081
S31500002BF0A178090441EA026108430090241D7E4839
S31500002C00B0F80AB06946404600F010FC022806D12A
S31500002C10BBF1010B03D39AF800100029F2D001286A
S31500002C2010D1761C6D1EDED27348448900210E2019
S31500002C3000F0FCFB022805D1641E03D39AF80010AD
S31500002C400029F3D089F80060310A89F8011089F863
S31500002C500200A7EB0900BDE8F88FFF2008700120ED
S31500002C60704770B50278A2F180031F2B02D8FFF7D8
S31500002C70F4FF70BD01F8012B0C4610F8016B002122
S31500002C80FF225D4D172E61D2DFE806F00C13171BED
S31500002C903A3E4960551F236060606060272B2F33E2
S31500002CA0373737000078611CFFF74EFC2070801C18
S31500002CB070BD2146FFF78AFC46E02146FFF799FCE6
S31500002CC042E02046FFF7CCFC3EE02146FFF770FCD1
S31500002CD03AE02046FFF7E2FC36E02146FFF7E3FC48
S31500002CE032E02146FFF74DFD2EE02146FFF773FD4A
S31500002CF02AE02146FFF77EFD26E02270022070BD05
S31500002D002146FFF7A1FD1FE02A78012A03D0217092
S31500002D106170022018E02146FFF7A8FD14E02A782A
S31500002D20012A04D021706170A17003200CE02146B5
S31500002D30FFF707FF08E02978012902D02270022058
S31500002D4070BD2146FFF763FD401C70BD04F8012CE1
S31500002D50012070BD284800210170022141606421D4
S31500002D60418101210175AFF300802448816B41F454
S31500002D70F0518163224A8115516122482023C3669E
S31500002D80C36F43F02003C36791614023C366C36FDB
S31500002D9043F04003C367CB1CD361C26F22F08002AD
S31500002DA0C267194A11600123C362C36B43F0010372
S31500002DB0C363164B1961102140F8141C50F8043CEB
S31500002DC043F0100340F8043C40F223135360022200
S31500002DD0C262C26B42F00202C263DA1E0C4B1A6177
S31500002DE0C0F8B010D0F8BC1041F01001C0F8BC100B
S31500002DF07047000038E0FF1F50EFFF1F00800440BF
S31500002E0000B0044018F00F4000A0044000900440B9
S31500002E1000C00440F8B500220023FF4E40274FF0C3
S31500002E20200CFE4C65681AE013B911F8012B082333
S31500002E30D40702D0C6F8847001E0C6F88870C6F8D8
S31500002E4088C00095009C641E0094FBD1C6F884C01F
S31500002E500095009C641E0094FBD152085B1E401E28
S31500002E60E2D2F8BD2DE9F0430122DFF8B4C3CCF875
S31500002E701820EC4E202777643764CCF81800776466
S31500002E8037644FEA5002CCF818207764376400EBB9
S31500002E9002034FEA9002CCF8182077643764134493
S31500002EA04FEAD002CCF81820776437641A44CCF87D
S31500002EB01820776437644FF00002CCF81820776446
S31500002EC037644FF00102CCF81820776437649146D6
S31500002ED046F84499DFF8448398F814301C46002BD2
S31500002EE006D0C6F88870C6F884705B1E002BF8D131
S31500002EF006F184067760DCF81C2237607760DCF820
S31500002F001C32376042EA43037760DCF81C2246F83D
S31500002F10847943EA8202012A12D0022A6BD0042A5B
S31500002F2069D0213434B1C6F88870C6F88470641E3E
S31500002F30002CF8D10120CCF81800D0B2BDE8F083FF
S31500002F40800728D5002500232020C6F88870DCF8E5
S31500002F501C42C6F8847023446D0845EAC475401EB9
S31500002F600028F2D1C6F88870DCF81C02C6F8847016
S31500002F704340D80700D0082201B10D6098F814002C
S31500002F8030B1C6F88870C6F88470401E0028F8D1A3
S31500002F90C6F848901DE034B1C6F88870C6F884704B
S31500002FA0641E002CF8D1C6F848900868002320213A
S31500002FB0CCF81800C6F88870C6F884700344400838
S31500002FC0491E0029F4D1CCF81830C6F88870C6F826
S31500002FD0847098F8080048B10021CCF81810C6F89B
S31500002FE08870C6F88470401E0028F8D10120CCF8FD
S31500002FF01800D0B2A2E798F815304BB1810707D573
S315000030002121C6F88870C6F88470491E0029F8D1B7
S3150000301034B1C6F88870C6F88470641E002CF8D1E6
S31500003020C6F8489063B180070AD40020CCF818008F
S315000030302120C6F88870C6F88470401E0028F8D192
S315000030400120CCF81800D0B278E72DE9F84F00241B
S315000030500122734FBA61DFF8C0C14FF02008CCF8E7
S315000030608880DFF8B8A1DAF804200092009B5B1E86
S315000030700093FBD1CCF884800092009B5B1E0093EA
S31500003080FBD1B861CCF888800092009B5B1E009350
S31500003090FBD1CCF884800092009B5B1E0093FBD191
S315000030A025184408BC61CCF888800092009B5B1E02
S315000030B00093FBD1CCF884800092009B5B1E0093AA
S315000030C0FBD125448408BC61CCF888800092009B23
S315000030D05B1E0093FBD1CCF884800092009B5B1EA4
S315000030E00093FBD12544C408BC61CCF888800092CB
S315000030F0009B5B1E0093FBD1CCF884800092009B62
S315000031005B1E0093FBD12B19BB61CCF88880009223
S31500003110009B5B1E0093FBD1CCF884800092009B41
S315000031205B1E0093FBD1BB61CCF888800092009BAC
S315000031305B1E0093FBD1CCF884800092009B5B1E43
S315000031400093FBD10123BB61CCF888800092009BE1
S315000031505B1E0093FBD1CCF884800092009B5B1E23
S315000031600093FBD14FF00109CCF844909AF8145023
S315000031702C0010D0CCF888800092009B5B1E009338
S31500003180FBD1CCF884800092009B5B1E0093FBD1A0
S315000031906D1E002DEED1CCF888800092009B5B1E40
S315000031A00093FBD1D7F81C52CCF884800092009B88
S315000031B05B1E0093FBD1CCF888800092009B5B1EBF
S315000031C00093FBD1D7F81C32CCF884800092009E85
S315000031D0761E0096FBD145EA4303CCF88880009220
S315000031E0009D6D1E0095FBD1D7F81C52CCF884804B
S315000031F00092009E761E0096FBD143EA8503012BC2
S3150000320024D0022B73D0042B71D02134CCB1CCF84E
S3150000321088800092009807E000F00F4050EFFF1FF3
S315000032200010FE4344F00F40401E0090F2D1CCF84F
S31500003230848000920098401E0090FBD1641E002CF2
S31500003240E5D10120B861D8B2BDE8F88F80074FD527
S31500003250002600252024CCF8888000920098401E85
S315000032600090FBD1D7F81C02CCF884800092DDF8E0
S3150000327000B0BBF1010BCDF800B0F8D105447608DB
S3150000328046EAC076641E002CE5D14446E346CCF8F7
S315000032908880D64600920098401E0090FBD1D7F851
S315000032A01C02CBF884400092009A521E0092FBD179
S315000032B04540E80700D0082301B10E609EF81410BF
S315000032C091B1DEF80420CBF8884000920098401EA9
S315000032D00090FBD1CBF8844000920098401E0090ED
S315000032E0FBD1491E0029EED1CBF848903CE057E0CF
S315000032F084B1CCF8888000920098401E0090FBD1E3
S31500003300CCF8848000920098401E0090FBD1641E89
S31500003310002CEED1CCF84890086800252024B8612E
S31500003320CCF8888000920099491E0091FBD1CCF818
S31500003330848000920099491E0091FBD10544400803
S31500003340641E002CEBD1BD6141466446CCF88880F2
S3150000335000920098401E0090FBD1C4F884100092A1
S315000033600098401E0090FBD19AF80810A1B10020E9
S31500003370B861DAF80420CCF8888000920098401EE4
S315000033800090FBD1CCF8848000920098401E0090FB
S31500003390FBD1491E0029EED10120B861D8B253E70E
S315000033A09AF815509DB1810711D52126CCF8888051
S315000033B000920099491E0091FBD1CCF884800092BE
S315000033C00099491E0091FBD1761E002EEED184B1E4
S315000033D0CCF8888000920099491E0091FBD1CCF868
S315000033E0848000920099491E0091FBD1641E002C36
S315000033F0EED1CCF84890ADB1800713D40020B86167
S315000034002121CCF8888000920098401E0090FBD1C4
S31500003410CCF8848000920098401E0090FBD1491E93
S315000034200029EED10120B861D8B20DE7024A5278E0
S31500003430002A00D016E508E650EFFF1F0422FEF72B
S315000034407BBDFEF7B2BD2DE9FE4380460C46002744
S31500003450009702A92046FFF7F1FFA0B101A9201DA0
S31500003460FFF7ECFF88B1FDF7E8FF0546284602F0B6
S3150000347091FD061F029850B10199701C814208D037
S315000034800120BDE8FE830020FBE70020F9E70120CC
S31500003490F7E72D1D002409E002980122411C029144
S315000034A02946FFF7CEFF68B16D1C641CB442F3D306
S315000034B0012269460298FFF7C4FF28B1C8F80070D8
S315000034C00120DEE70020DCE70020DAE710B5002067
S315000034D0FDF7BCF9002010BD08B508466946FFF7A0
S315000034E0ADFF08B1012008BD002008BD10B5044697
S315000034F0FDF79EF900212160012010BD10B504469C
S31500003500FDF79DF900212160012010BD10B551493C
S3150000351088684FF0FF328A60C968B0F5817F16D09F
S3150000352006DC182828D0A0F58070013829D107E0DC
S31500003530B0F5827F12D0A0F58070053821D114E055
S3150000354044480830FFF77FFFD8B9002010BD414836
S315000035500830FFF7BBFFA0B9002010BD3D4808307A
S31500003560FFF7C4FF68B9002010BD3A480830FFF7DE
S31500003570C5FF30B9002010BD36480830FFF7ACFF54
S3150000358008B1012010BD002010BD324C4FF6FF756A
S315000035901DE030490C31081FFEF7D9FD30B1FFF7A9
S315000035A0B5FF38B1A068FEF70AFE03E00220DFF897
S315000035B0A8C000DF002211460220DFF8A0C000DF0D
S315000035C00128E6D02348DFF898C0103000DF00223B
S315000035D029460120DFF884C000DFDAE710B51D4C6C
S315000035E000202070002104F11000DFF878C000DF11
S315000035F000231A4602211C48DFF870C000DF606015
S3150000360010BD10B5134C207800280CD16068002836
S3150000361009D0052000F0EBFC0120DFF854C06168FA
S3150000362000DF0120207010BD10B50A4C207800285C
S315000036300FD0616800290CD00220DFF834C000DF0B
S315000036404FF6FF7104F11000DFF828C000DF0020FC
S31500003650207010BDD4000020935E0000A94F00002A
S315000036608D570000815700008B350000495C000033
S31500003670EB4F0000C357000010B527484CF220510D
S31500003680C1814DF62811C181018821F00101018017
S31500003690234822490160002141604FF400328260D4
S315000036A0D202C2604FF0A05242614FF400628261C2
S315000036B080F82010491E416200F0DCF808B10120B4
S315000036C010BD002010BD0020704710B515491448E4
S315000036D000F082F808B1012010BD002010BD10B521
S315000036E00146104B4FF480620D4800F07DF808B19A
S315000036F0012010BD002010BD38B50C4609490091C7
S31500003700134601462246064800F040F908B101205A
S3150000371038BD002038BD00000020054000000240F2
S31500003720A0070020253A00001F48816B41F4A051F4
S3150000373081631E49801508611D48102101604161A1
S31500003740816841F010018160704719491022C03923
S31500003750002802D0C1F8C8207047C1F8C4207047BD
S31500003760F3E7F2E7002070471248416841F08071A4
S3150000377041601149416041151048C0F8FC11C1670C
S3150000378070470C48D0F8A010022906D1416841F0D4
S315000037908071416040F21311416070470448C0389F
S315000037A0006D00F0020070470080044000C0044035
S315000037B0C0F00F4000A0044013010A0088E000E0BA
S315000037C004490A6ECB6D5A408B6D496D4B405A4089
S315000037D0026070470080044008B50B464422009200
S315000037E06A460021984708BD2DE9F8430746164664
S315000037F0984600208A197B684FF480658B4203D86F
S31500003800BC681C4494420DD2FB688B4203D83C69C9
S315000038101C44944202D20220BDE8F883CC1A04F577
S31500003820000400E0CC1AB4FBF5F105FB114111B11F
S315000038304FF48070F0E7B6FBF5F105FB116109B1B5
S315000038400120E9E74FF0090911E08DF80090200CFE
S315000038508DF80100200A8DF802008DF803406A46B3
S3150000386003213846C0470028D6D1761B2C44002EAB
S31500003870EBD1D1E7F0B5002401680A781206FCD531
S3150000388070220A7002680321D171016880268E7148
S315000038900268002151710368FC221A710268D17313
S315000038A002681670026813781B06FCD5557A127AE0
S315000038B002F00F0C4FF400425710BCF1100F2CD23F
S315000038C0DFE80CF0080A0E10121416181A1C202233
S315000038D02426282A026120E04FF4C04202611CE03F
S315000038E007611AE0016118E0026116E0026114E066
S315000038F0026112E0026110E001610EE04FF4005235
S3150000390002610AE0076108E0026106E0026104E084
S31500003910026102E0026100E0026105F00F02102A76
S3150000392032D2DFE802F0080A0C0E12161A1E202305
S3150000393026282A2C2E30C16126E0C16124E0C1610F
S3150000394022E04FF40061C1611EE04FF48061C16165
S315000039501AE04FF40071C16116E04FF48071C16145
S3150000396012E0C66110E04021C1610DE02021C16175
S315000039700AE0C16108E0C16106E0C16104E0C1611D
S3150000398002E0C16100E0C1612046F0BD2DE9FC41C5
S315000039900746DDF8208016461D4600208A198B074B
S315000039A003D04FF48070BDE8FC81B30701D001203D
S315000039B0F9E77B688B4203D8BC681C4494420CD25E
S315000039C0FB688B4203D83C691C44944201D2022016
S315000039D0E9E7CC1A04F5000421E0CC1A1FE0062022
S315000039E08DF80000200C8DF80100200A8DF80200E9
S315000039F08DF80340E8788DF80400A8788DF8050066
S31500003A0068788DF8060028788DF807006A46072141
S31500003A103846C0470028C6D1241D361F2D1D002E4E
S31500003A20DDD1C0E770B504460025206803781B0683
S31500003A30FCD57023037000203AE00C2836D2DFE86C
S31500003A4000F0060A0E12161A1E22262A2E322668A2
S31500003A501378F3712AE026685378B37126E0266856
S31500003A609378737122E02668D37833711EE0266856
S31500003A701379F3721AE026685379B37216E0266852
S31500003A809379737212E02668D37933720EE0266852
S31500003A90137AF3730AE02668537AB37306E026684E
S31500003AA0937A737302E02668D37A3373401CC0B2EC
S31500003AB08842C2D921688020087003E0606A411CF0
S31500003AC000D08047206800780006F7D52068007887
S31500003AD0810601D5042506E0C10601D5082502E0C8
S31500003AE0C00700D01025284670BD0000FE490820FA
S31500003AF008607047FD4908200870FD48416841F498
S31500003B00A0214160816C21F00F0181640021816454
S31500003B10416B41F48021416301DFF64890F80C11B6
S31500003B2041F0800180F80C1190F80C110906FBD4C5
S31500003B30F149090A00F89C1FEF49090C0175EE4985
S31500003B40090E0176FF2100F81C1C9C38EB49096818
S31500003B5011B10421022201E0002100221143ED30BF
S31500003B6041F0190100F8691C4021C174C17F41F080
S31500003B704001C1777047DF49002808D011F8940F3B
S31500003B8040F001000870102081F87400704711F8A9
S31500003B90940F20F00100087091F8740020F01000D6
S31500003BA081F8740070470120D249002201EB80039E
S31500003BB083F8C020401C1028F8D3CF480823438040
S31500003BC000F160034360C8230370027200F1E00352
S31500003BD04361C2610D20803181F84000C34B4FF034
S31500003BE055305860087D40F002000875FF200870C7
S31500003BF0087208730A767047BE488430017841F02F
S31500003C00200101707047BB488430017821F0200103
S31500003C10017070474CF25030B9490978890700297C
S31500003C200FDAB44A9432117841F0040102F894197B
S31500003C3000E000BF401EFCD212F8940F20F00400F2
S31500003C40107070477047002903D1AE4900F07F001D
S31500003C50087070477047F0B5A44BA74E4FEA006C4A
S31500003C60002501276036A44C5A6800F00F01BCF10C
S31500003C70000F15DA07EB4100874017435F6001F03C
S31500003C800F01022000EB810006EB801204EBC0005E
S31500003C904260032000EB810004EBC0004560F0BDEC
S31500003CA04FEA400C07FA0CFC22EA0C025A608F4AD3
S31500003CB0125C04EB4110428006EB0122426088222E
S31500003CC0027007EB810004F83050F0BD0146887899
S31500003CD089880206002A01DB844A1154BBE7704733
S31500003CE002068449002A09DA00F00F0001EB800081
S31500003CF010F8C01F41F005010170704701EB80000C
S31500003D0010F8C01F41F00901017070470206794999
S31500003D10002A09DA00F00F0001EB800010F8C01F3E
S31500003D2021F005010170704701EB800010F8C01FFB
S31500003D3021F009010170704700F00F006D4901EB99
S31500003D40800010F8C01F41F00201017070476949F8
S31500003D5000F00F0201EB820111F8C02F22F00202DF
S31500003D600A7078E770472DE9F041054600262807D6
S31500003D70830E614F07EBC30CBCF80200002D06D181
S31500003D8017F83320C2F383020D2A00D10126002240
S31500003D90594C603404EB831404E014F8028001F8F3
S31500003DA00280521C8242F8D3504A525DACF802207F
S31500003DB04E4D5A0817F833806C68C8F3801824FAF9
S31500003DC002FC0CF0010CC44506D10EB1897959B13B
S31500003DD001219140614069606968D140C90707D0F7
S31500003DE0C82107F8331006E024F001016960F3E703
S31500003DF0882107F8331044490A7822F020020A7015
S31500003E00BDE8F08170B50346104603F00F020223A9
S31500003E1003EB8204384E06EBC4025080002306F101
S31500003E20600202EB841202E0CD5CD5545B1C834237
S31500003E30FAD32E4B6208596821FA02F5ED0703D032
S31500003E40882506F8345002E0C82506F834500124C7
S31500003E5094404C405C6070BD2A4908310878097965
S31500003E6040F2FF7202EA0121084370471F4880684A
S31500003E7070472DE9F047244D143D2C782879803D74
S31500003E8004401E4EE0070BD0FFF78DFE00F014F93C
S31500003E90316811B1042001F0DEF8012085F88000B8
S31500003EA0E00609D5FFF7A8FE316811B1102001F030
S31500003EB0D2F8302085F88000A00609D5FFF7A3FECA
S31500003EC0316811B1202001F0C6F8202085F8800065
S31500003ED0600707D5316811B1402001F0BCF8042015
S31500003EE085F8800012E0000004E100E0EC0000200C
S31500003EF0008004400020074000080020F800002051
S31500003F0042E0FF1F9820074094200740DFF8CC804E
S31500003F10022C0ED195F88800C8F80800316811B156
S31500003F20802001F098F8FF2085F88800022085F8A7
S31500003F308000200750D515F8900F04092878C0F3A3
S31500003F40C00015F89019C1F38001DFF89490254F51
S31500003F504CB9002202EB40020A4419F83220C2F39F
S31500003F6083020D2A0BD02207920E02EB4000461860
S31500003F7019F83600C0F38300012818D01DE0D8F8E0
S31500003F80040020F00200C8F8040099F8180020F098
S31500003F90800089F8180099F8100020F0800089F850
S31500003FA010003968A9B1022001F055F811E057F860
S31500003FB0241011B1042001F04EF819F83600C0F3B0
S31500003FC08300092805D157F8241011B1082001F003
S31500003FD042F8082085F88000BDE8F087EC00002054
S31500003FE00008002068EFFF1F0120FEF7DAB9FEF790
S31500003FF0E1B938B569462848FDF700FE30B10098AA
S31500004000A0F5E011203903D0002038BD002038BDCE
S31500004010214C6946F83C2046FDF7F0FDC8B1A505E0
S3150000402069462846FDF7EAFDA8B10098400731D554
S315000040300020FFF7DCFF01212046FDF70BFE60B1F3
S3150000404069462846FDF7DAFD48B10098C007F2D068
S3150000405015E0002038BD002038BD002038BD002006
S3150000406038BD002038BD69462846FDF7C7FD68B152
S3150000407069462046FDF7C2FD50B1009850B10021B7
S315000040802046FDF7E7FD0028EDD1EAE7002038BD20
S31500004090002038BD012038BDFC00000110B5C5491F
S315000040A00020C870FCF7C7FCFCF7C7FCBDE8104051
S315000040B0FFF720BDFFF75FBDBF480178BD48C1804F
S315000040C00021017041704FF001128260C1600161F0
S315000040D07047B8484078002801D00120704700207A
S315000040E07047B44920310020FFF73DBE10B5B14CF2
S315000040F0B2481834A28801788A4200D9027812B9E7
S31500004100AC490020087180202168FFF77BFE2168FA
S3150000411001442160A188081AA08010BD10B5A54CE5
S31500004120002018342168FFF71EFE21680144216033
S31500004130A188081AA08010BD002211468020FFF732
S3150000414061BE9F490020FFF70EBE2DE9F0470446E9
S31500004150DFF86082A00708F12008964D4FF0000AAC
S31500004160A8F10806002826DAFFF7BBFF98F800003A
S31500004170C009FFF7B4FDB8F80600B08098F8000053
S31500004180C0F3411111B1012972D19CE098F80110D8
S315000041908C4FDFF834920C296AD2DFE801F0060D65
S315000041A0A225A23D4DA2535C708102F0D1F80028F1
S315000041B05ED0FFF79BFFA4E0002002F00FF9002875
S315000041C056D0FFF7B9FF386830B16969002902D0C7
S315000041D00820FCF721FC94E0D9F80000002802D062
S315000041E0D9F8000080478CE0012002F0F7F800289B
S315000041F077D0FFF7A1FF386830B16969002902D08E
S315000042000420FCF709FC7CE0D9F80000002878D0EF
S31500004210D9F80000804774E010F01F0F61D198F8BC
S31500004220020040F08000287000F07F000121FFF7B7
S315000042300AFDFFF781FF64E001F0CAFFC0B1FFF796
S3150000424055FF5EE010F01F0F4BD15A48401C3060FE
S31500004250FFF74CFF55E002F01DF948B1FFF76CFF80
S31500004260386830B1696939B30120FCF7D5FB48E0FD
S3150000427037E056480168F9B10068804741E000F030
S315000042801F0001282DD1687858B398F80400A97842
S31500004290884226D24E4908443060FFF727FF30E0B7
S315000042A002F0C2F9E8B1FFF747FF386828B169693B
S315000042B011B10220FCF7B0FB23E04648016801B3C8
S315000042C0006880471DE010F01F000AD0012808D1C1
S315000042D0FCF786FBA8B900F081F890B9FCF78CFBD7
S315000042E078B998F80000000606D4B8F8060018B1A8
S315000042F00020FFF721FD02E08020FFF71DFDA6F854
S3150000430004A0600723D598F8000000061DD4B088E5
S31500004310E8B1FFF703FFB088C8B998F80000C0F30A
S31500004320411161B101290AD110F01F0007D00128FF
S3150000433005D1FCF757FB50B9FCF760FB38B9802074
S31500004340FFF7FAFCA6F804A001E0FFF7FAFE200743
S3150000435013D598F80000000606D5B08829790843D9
S315000043600BD0FFF7C3FE08E02878010605D500F05C
S315000043707F0028700021FFF766FC600602D500204A
S31500004380FFF7E5FC200604D5BDE8F0478020FFF7DF
S31500004390DEBCBDE8F0870B48006800280AD04FF65F
S315000043A0FF7420460146FCF741FBFCF73BFBFFF799
S315000043B0CCFEF6E73CE0FF1F806700008467000044
S315000043C00800002098670000946700008C670000D2
S315000043D018E0FF1F9067000000F048B810B51348BA
S315000043E0134A0179127891421DD1014642784888D4
S315000043F0C988FE2A0AD0FF2A15D1A0B999B900F0BA
S3150000440058F880B1FFF798FE012010BD58B9012970
S3150000441009D100F057F830B1074906480860FFF7A0
S3150000442065FE012010BD002010BD00005CE0FF1FEE
S31500004430856700000800002054E0FF1F70477047A2
S315000044407047704710B504462046FFF775FC2006F6
S3150000445005D504F00F014FF48030884001E00120BB
S31500004460A040F8490A681043086010BDF648007974
S3150000447000F08F010806002805DA01F00F004FF45E
S315000044808032824001E001228A40F048007840F004
S31500004490800088420CD1EB490968114208D0EC49EA
S315000044A0EC4A0968914203D10D22E949FFF7AABCFB
S315000044B07047E94900200860E5490860E749087047
S315000044C001207047E649002008700120704710B5AA
S315000044D0DF49E0480860DD480D22007840F08000A2
S315000044E0FFF790FCDD490520087010BD10B5DB49CB
S315000044F04868C860002801D0012010BDD4481F3884
S31500004500816869B1007B000606D5D048007840F086
S315000045108000FFF797FF03E0D2480078FFF792FF8D
S31500004520CB4901200873FFF7D2FF002010BD2DE90B
S31500004530F041CA4DC5480026AA690078696AC44F89
S3150000454040F08008914207D300244046FFF77AFFE7
S315000045503E73FFF7BCFF08E0C449C348097830F84A
S315000045601140E86A844200D30446FFF7BFFF00B952
S315000045700024A86A70B96CB1E96A28690144491E29
S31500004580B1FBF0F269698A4200D90A46E969686AAC
S31500004590FCF75AFD64B1A96AE8692246014440461F
S315000045A0FFF730FCA86A2044A862E86A001BE862AC
S315000045B0D5E90410AA6A4143914203D1AE62696A01
S315000045C008446862B868001BB860002C07D0E86A27
S315000045D008B9032028702878022800D03E73BDE869
S315000045E0F0812DE9F0419D4D0026994FA969686A31
S315000045F0884207D32E639B480078FFF723FF3E735C
S31500004600FFF765FFFFF772FF00B92E630020984998
S3150000461005E0AB6AEC6903440A5CE254401C2A6B71
S315000046209042F6D3296BA86A0844A862EA6A521A2D
S31500004630EA6231B3BAB9B0B129690844401EB0FB89
S31500004640F1F46869844200D904462246A846E9691D
S31500004650686AFCF757FDC8F82860D8F8240020449B
S31500004660C8F824000DE0D5E904125143814208D16F
S31500004670E969686AFCF746FDAE626969686A0844DA
S315000046806862B968286B091AB9600028A7D0E86A79
S3150000469010B128780528A2D13E73BDE8F04116E78F
S315000046A09DE72DE9F0416D4C0025694EA169606AD0
S315000046B0884207D325636B480078FFF7C3FE35733E
S315000046C0FFF705FFFFF712FF00B92563206B10B354
S315000046D0A06A68B9E16A20690144491EB1FBF0F29B
S315000046E06069824200D90246E169606AFCF7ACFC67
S315000046F000205F4A236BA16A0BE0D4F81CC00F1898
S315000047001CF8077012F800C0674501D0256202E068
S31500004710401C9842F1D3A16A206B0A18A262E16A92
S315000047200B1AE362D4E904714F43974203D1A562A1
S31500004730626A11446162B168091AB16000280CD03E
S3150000474013B12078052808D1206A20B100203073E3
S31500004750BDE8F041BBE60120F9E740E770B53C4C07
S315000047601F3C207D617CE27C40EA0161A07C000464
S3150000477040EA02200143394D69620020A862E07BCD
S315000047802F280AD004DC28280AD02A281CD104E0C5
S31500004790A8280FD0AA2817D109E0FFF7A7FE20B155
S315000047A0E07DA17D40EA01210EE0002070BDFFF70B
S315000047B09DFEE0B1207E617DE27D40EA0161A07D43
S315000047C0000440EA0220014328694143E962A068E7
S315000047D01F4E012568B1884219D0207B00060DD5F1
S315000047E01A48007840F08000FFF72CFE0AE000200F
S315000047F070BD3573FFF76BFE002070BD1948007859
S31500004800FFF720FE3573FFF762FE002070BD012022
S3150000481070BD70B50E4802251F380D4C8168002901
S315000048200BD0007B000625D40E480078FFF70AFE61
S315000048302573FFF74CFE002070BD2573FFF747FE7A
S31500004840002070BD48E0FF1F5CE0FF1F8667000088
S31500004850C7EFFF1F555342534CE0FF1FFC000020DB
S315000048600800002087670000886700003FE0FF1F00
S3150000487094020020012070BD10B5FA48FA4C8068F9
S31500004880216B884203D820630320207001E00420B6
S315000048902070F648F649226B007840F08000FFF75A
S315000048A0B1FAF048226B1F308168891A81600021B5
S315000048B0017310BD10B5EB4800F11F048168002993
S315000048C012D0007B000606D5E848007840F080004C
S315000048D0FFF7B8FD03E0E7480078FFF7B3FD0120D6
S315000048E02073BDE81040F2E5FFF700FE002804D073
S315000048F000202073BDE81040E9E510BD10B5FFF7B4
S3150000490088FF002838D0DA487021017000214170F4
S31500004910D54BDC685A6832EA040406D00624847053
S31500004920282404734173DA6009E0DAB1CD4A1F32F4
S31500004930127BEAB105228270202202734173C17094
S315000049400171417181710A22C271017241728172D3
S31500004950C1728173C1730174417412201863BDE87A
S31500004960104089E7022282703A2202734173E6E719
S31500004970817001734173E2E710BD10B5FFF749FF7F
S3150000498000281FD0BA4B00201870802159700221D0
S315000049909970D97020241C7158719871D871B648D5
S315000049A0016808200A7812B11A54491C00E01C5408
S315000049B0401CC0B22428F5D3AB4924200863BDE8C7
S315000049C0104059E710BD10B5A64800F11F04817CC0
S315000049D0002904D001202073BDE8104077E5C07C93
S315000049E0A14900F001004860FFF72BFD002020736D
S315000049F0BDE810406BE59B48C07CC107994800F1B3
S31500004A001F0002D00121017301E0002101735EE560
S31500004A1010B5FFF7FEFE00281AD0FFF767FD002845
S31500004A2016D0934803210170002242708E490B7AFA
S31500004A30DB018370C270042008638A491F318A68CB
S31500004A40042A02D9874A90608860BDE8104013E7BF
S31500004A5010BD10B5FFF7DDFE00281ED0FFF746FD9E
S31500004A6000281AD082480021017006224270817007
S31500004A707D4B1A7AD201C270017141718171C17187
S31500004A800820186377491F318A68082A02D9754AAF
S31500004A9090608860BDE81040EEE610BD10B5FFF7E7
S31500004AA0B8FE00281BD0FFF721FD002817D06E4A5C
S31500004AB06F489169491E0B0E03700B0C43700B0A6D
S31500004AC08370C17011690B0E03710B0C43710B0AD5
S31500004AD08371C17108201063BDE81040CCE610BD9B
S31500004AE010B5FFF796FE002828D0FFF7FFFC002838
S31500004AF024D05F4800210170417081700821C17087
S31500004B00594A91690B0E03710B0C43710B0A8371A1
S31500004B10C1710221017211690B0C43720B0A837277
S31500004B20C1720C2010634F491F318A680C2A02D9C2
S31500004B304C4A90608860BDE810409DE610BD49492A
S31500004B4000201F310873C2E470B5FFF762FE00282B
S31500004B501CD04748022202704270434D2A6303204C
S31500004B602870404C1F34A068022802D93D48826054
S31500004B70A2603E483E49007840F08000FFF742F9C7
S31500004B80A068296B401AA0600120207370BD10B583
S31500004B90FFF73FFE002818D035482022027000217A
S31500004BA04170C177304C2263032020702F48304972
S31500004BB0007840F08000FFF725F92A48226B1F3065
S31500004BC08168891A81600121017310BD2DE9F047C2
S31500004BD00020254D234C264A296B02E0135C235402
S31500004BE0401C8842FAD3214E0127DFF888803078AE
S31500004BF01F2940F080096FD12068204988426BD177
S31500004C00184E60681F367060A068B060607B18B987
S31500004C10A07B08B1102803D93773BDE8F04756E4E6
S31500004C20E17B4FF0020A28296CD029DC1A295DD0D5
S31500004C300DDC0429F0D005DCA1B30329ECD1BDE8D5
S31500004C40F0475BE61229E7D1BDE8F04795E61B2958
S31500004C5046D01E2947D023294BD02529DCD1BDE8D3
S31500004C60F0471BE7A8EFFF1FFC0000208667000047
S31500004C70940200208767000014E0FF1F555342434B
S31500004C80912971D016DC35296ED00CDC2A2919D071
S31500004C902F29C1D1207C800753D400203073BDE872
S31500004CA0F04714E419E05529B6D05A29B4D1BDE825
S31500004CB0F047CEE69E2922D0A1291DD0A82921D0D1
S31500004CC0AA29A9D1FFF74AFD002803D0207B0006B8
S31500004CD02ED42F70BDE8F08749E0BDE8F047E9E53E
S31500004CE0BDE8F0476FE6BDE8F04784E6BDE8F0476B
S31500004CF08EE6BDE8F047F3E6BDE8F04724E7BDE8F9
S31500004D00F04744E7FFF72AFD0028E3D0207B0006A2
S31500004D1004D585F800A0BDE8F04708E498F800003F
S31500004D20FFF790FB86F80CA0BDE8F047FFF7CFBB76
S31500004D304846FFF787FB86F80CA0BDE8F047FFF76B
S31500004D40C6BBFFF70BFD0028C4D0207B000602D4AB
S31500004D502F702F62BEE74846FFF774FB86F80CA05B
S31500004D60BDE8F047FFF7B3BBBDE8F047E7E64846C6
S31500004D70FFF768FB3078594C00F00F014FF4803094
S31500004D80884021680843206098F80000FFF75AFB26
S31500004D9098F800008740206807432760062028709F
S31500004DA098E710B54E490878022808D0032810D095
S31500004DB0042812D0052801D10020087010BD4948EA
S31500004DC0C07B282801D0A828F8D1BDE81040FFF7FD
S31500004DD0AEBBBDE81040FFF77ABB4348007840F011
S31500004DE08000FFF72FFBBDE81040FFF770BB10B542
S31500004DF03B48007800280FD0012810D005281DD088
S31500004E003A480078FFF71EFB364902201F31087327
S31500004E10BDE81040FFF75BBBBDE81040D6E6314861
S31500004E20C07B2A2803D02F2805D0AA2806D1BDE8A2
S31500004E301040FFF7D6BBBDE8104032E410BDB0E726
S31500004E4010B52A482A490078FEF78DFF24490863E1
S31500004E50BDE81040CBE710B504466007002802DA2B
S31500004E600020FFF7EDFF200703D5BDE81040002026
S31500004E70E5E710BD1F48006800280DD04FF6FF7407
S31500004E8020460146FBF7D2FDFBF7CCFD0007F7D520
S31500004E900020FFF7D4FFF3E71648006800280DD07E
S31500004EA04FF6FF7420460146FBF7C0FDFBF7BAFD3F
S31500004EB04007F7D50020FFF7C3FFF3E70D4800686A
S31500004EC000280AD04FF6FF7420460146FBF7AEFDD8
S31500004ED0FBF7A8FDFFF7BFFFF6E700004CE0FF1F5A
S31500004EE0FC000020A8EFFF1F866700008767000010
S31500004EF0940200209867000010B5428C9208002AA0
S31500004F0003D1244A1288C2F38D02836A03EB82031B
S31500004F105A0700D51B1F403B4FF08072DA63996336
S31500004F200022002443F82240521C0E2AFAD3C269FA
S31500004F301A624362C162806A1749016010BD174850
S31500004F400068C00100280BDA15480068C00707D0C2
S31500004F50134880380068002802DA124901200870D8
S31500004F6070474FF06042D36F002BFCD0C36AD36703
S31500004F70D36F002BFCD0C07840EA0120A2F87C0059
S31500004F8070474FF06041CA6F002AFCD081F87C0060
S31500004F907047000060670000A52E5AE2FCED00E0B5
S31500004FA0800E00E068E0FF1F10B503460C46464839
S31500004FB0002A0168088B08D033EA000201D00620D7
S31500004FC00CE098430883022010BD10EA030204D0C7
S31500004FD04A8398430883022010BD05204B83C1B243
S31500004FE0204600F0C4FD012010BD70B502463748CA
S31500004FF0491E50F82140002C22D0208B10432083DC
S31500005000658B6178062902D135EA000206D00529AA
S3150000501016D1284214D005EA00016183A8432083F3
S31500005020204600F026F9208BA843208301206070DB
S31500005030022084F820002046BDE8704000F077BDCD
S3150000504070BD224A491E52F82110002902D00A8B4F
S3150000505082430A83704710B502461C48491E50F821
S315000050602100002806D0114600F017F9BDE81040CF
S3150000507000F096BC10BD14480068408B704710B510
S315000050800446208B08432083618B6278062A02D16E
S3150000509031EA000306D0052A14D1084212D001EAEB
S315000050A00002628388432083204600F0E2F8012054
S315000050B06070022084F820002146BDE810400448B4
S315000050C000F008B810BD00003801002098ECFF1F62
S315000050D0D4EFFF1F30B500250278022A03D0012A3B
S315000050E001D0032A00D101258B78426801E01046E1
S315000050F0526812B194789C42F9D24A6041601DB15F
S3150000510002B19160886030BD0020886030BD0146E4
S31500005110486842684A600A780023022A05D0012AB4
S3150000512003D0032A01D04360704742680AB19160F8
S315000051304360836070476D494A684260002282601E
S315000051404860704769494868694B82781B689B7854
S315000051509A4202D142684A607047002070478168CF
S31500005160002907D042684A604168002901D080685A
S31500005170886070475D4906E04A68824202D140680D
S315000051804860704711460029F6D1704710B50446AD
S31500005190A368002B05D1607801280DD1534B03E09D
S315000051A09B6818780028FBD02046FFF7D8FF2146D9
S315000051B0BDE8104018468DE710BD10B54B4A1832B1
S315000051C0D368002B02D013469B8A06E0002313E027
S315000051D0D4688CB12246948A23448B42F8D3D4688F
S315000051E0C460D0600261C46804B12061591A81822A
S315000051F0908A401A908210BD0024C460D06002617B
S31500005200C91A9182848210BD70B5384E1836F0687E
S3150000521000282DD0B08A401EB082002522E0A0686A
S3150000522038B161684160606810B1A16881606560ED
S31500005230A56021462D48FFF74DFFA08AB082607811
S31500005240042804D12B49E08A09880844A082012059
S31500005250607084F82000E068F060E06808B10661DC
S31500005260E5602561B08A002802D1F468002CD6D109
S3150000527070BD10B5016900290ED0C268CA60C36846
S3150000528000223BB18B8A848A23448B82C3681961CE
S31500005290C26000E08A82026110BDF0B4164FBC1CE9
S315000052A0FD783E46D4E84F3FAB4202D1BFF32F8F85
S315000052B00FE05B1CC4E8423F002AF3D1D6E84F2F2B
S315000052C01346521CAA4200D10022C6E8442F002CE5
S315000052D0F4D1FA789A4205D907EBC302506091607F
S315000052E0F0BC7047F0BC0220FBF736BBD4EFFF1FC3
S315000052F038010020400100207002002001220270C7
S315000053000022427042600281428182811039C1F3DB
S315000053108F01C18170472DE9F0410D46164643685D
S31500005320002481899C4F002B00D049B1C28991424B
S315000053302AD1BEB198490968BBB1FFF7CBFE1BE085
S31500005340FFF7E5FE0646F0690560042086F82000B2
S315000053503046FFF78EFF304600F0E9FB386880F8EC
S31500005360204026E00120BDE8F081416039684C60AC
S3150000537039688860012141703868C5610821304666
S3150000538000F0F5FB0120EEE7018900EB81010D61DC
S3150000539000F10C01D1E85F2F521CC1E8532F002BFE
S315000053A0F8D10189491C89B20181C289914200D193
S315000053B004810020D7E72DE9F04104460D469046CA
S315000053C0A0890027744E002835D0608904EB800040
S315000053D0006928606089401C80B26081E18988424A
S315000053E000D167816068E0B12046FFF790FE054670
S315000053F085F820702189E86904EB8101086120891C
S31500005400401C80B22081E189884200D1278128464C
S31500005410FFF72FFF284600F08AFB306880F82070DF
S3150000542007E00C34D4E85F0F401EC4E8510F002992
S31500005430F8D1002097E7B8F1000F07D05649606809
S31500005440096828B12046FFF745FE06E001208AE7F5
S31500005450616030684760306884600821404600F02B
S3150000546086FB3068C56101207DE7C1898089081AFD
S31500005470704710B5FFF711FFBDE8104000F090BA75
S3150000548010B50446A089002823D0608904EB80006B
S31500005490006908606078012807D102206070002149
S315000054A02046FFF7FAFE00F07BFA04F10C00D0E884
S315000054B05F1F491EC0E8521F002AF8D16089401CB0
S315000054C080B26081E189884201D100206081042098
S315000054D010BD002010BD2DE9F041044688466068E5
S315000054E0002704F10C05002802D0617802291BD0A0
S315000054F008B1A089A0B3A089E189884246D2208953
S3150000550004EB8000C0F81080D5E85F0F401CC5E8AA
S31500005510510F0029F8D12089401C80B22081E189F1
S31500005520884200D127811EE767702046FFF7EFFD0E
S31500005530064686F820702189F06904EB810108612E
S31500005540D5E85F0F401CC5E8510F0029F8D1208926
S31500005550401C80B22081E18988420CD127810AE073
S31500005560FFE72046FFF7D3FD0646F069C0F8008046
S31500005570042186F82010012070703046FFF779FE6E
S315000055803146BDE8F0410548FFF7A4BDBDE8F0414E
S315000055900320FBF7E1B9000038010020D4EFFF1F1C
S315000055A010B5002A06DA22F00042D21D22F00703C7
S315000055B0102203E0D21C22F003030C2223B19C1814
S315000055C08C4203D9012010BD012010BD02440260A7
S315000055D0014441608360C91AD018884202D900206C
S315000055E0106010BD10600246F6E7014651E8000F54
S315000055F028B1036841E80032002AF7D17047BFF3AB
S315000056002F8F704710B504462046FAF791FF002801
S3150000561008D00246A168002904D0002308C2091F49
S315000056200029FBD110BD814202D342688A4201D8CB
S315000056300120704750E8002F0A6040E80012002A57
S31500005640F8D100207047000003210170002141704D
S3150000565041804160816070472DE9F04704466088CB
S31500005660002804D0444EA1683268914202D0FF203F
S31500005670BDE8F087401E0004000C608001D00020C9
S31500005680F6E7316860788870DFF8F09061684FF06F
S315000056900008012749B32046FFF739FD05460520D6
S315000056A085F820002846FFF7E4FD6780A560A87806
S315000056B060703168D9F8042088789278904203D3D4
S315000056C0284600F034FA0CE02C48FFF703FD294683
S315000056D02A48FFF7FFFC306847706F70002000F023
S315000056E026FA306880F8208010E0D9F804108A780D
S315000056F0316882420AD92148FFF7ECFC30684770CE
S31500005700002000F014FA306880F820800020AFE70F
S3150000571070B504460E46184D61882868002907D0E2
S31500005720A268824208D16088401C6080002070BD5B
S31500005730A06080786070F6E776B161788078814203
S3150000574003D29070A068FFF721FD606830B1204653
S315000057502968FFF7BFFC08E0012070BD286860607B
S31500005760296800204860286884600921304600F0D6
S31500005770FEF9012070BD000038010020D4EFFF1FA4
S3150000578002220270002242604180704710B54168D3
S31500005790002911D0FFF7BBFC0446032084F8200043
S315000057A02046FFF766FD204600F0C1F92549002096
S315000057B0096881F8200002E04188491C41800020E8
S315000057C010BD10B50C464188002903D0491E418002
S315000057D0002010BD34B11B4A4368116823B1FFF79E
